:1000000045C0000060C000005EC000005CC0000091
:100010005AC0000058C0000056C0000054C0000084
:1000200052C0000050C000004EC000004CC0000094
:100030004AC00000CAC0000046C0000044C0000022
:1000400042C0000040C000003EC000003CC00000B4
:100050003AC0000038C0000036C0000034C00000C4
:1000600032C0000030C000002EC000002CC00000D4
:100070002AC0000028C0000026C0000024C00000E4
:1000800022C0000020C000001EC0000011241FBEBE
:10009000CFEFD0E4DEBFCDBF11E0A0E0B1E0E0E201
:1000A000F8E000E00BBF02C007900D92A232B1074A
:1000B000D9F721E0A2E2B1E001C01D92AD32B20752
:1000C000E1F77FD3ABC39CCF181619069CF440E030
:1000D00050E077E063E00BC00000215031092115AA
:1000E0003105D1F74F5F5F4F4817590719F0272F98
:1000F000362FF2CF08955E9888B95F9A00005F9816
:1001000082E090E0E1CF089581E0F5CF089584E6A4
:1001100090E0DADF88E3EFDF86E0EDDF8FE0EBDF12
:1001200081E0E9DF8AE090E0CFCF08955E9A88B958
:100130005F9A00005F9881E090E0C6CF089581311A
:1001400018F48158D8CF08958155D5CF08950F93CD
:100150001F93CF93DF93182FEB01D6DF888188237D
:1001600059F001E0010F812FEADF8991DFDF8881FB
:10017000882311F0102FF5CFDF91CF911F910F91B0
:1001800008958BE0809381008DE790E09093890043
:100190008093880082E080936F0010928500109217
:1001A00084008091020190910301A0910401B0911B
:1001B00005018093220190932301A0932401B09321
:1001C00025018FB780688FBF08951F920F920FB6D9
:1001D0000F9211248F939F93AF93BF93809122012D
:1001E00090912301A0912401B09125010197A109CB
:1001F000B1098093220190932301A0932401B0932D
:100200002501892B8A2B8B2B99F481E08093260181
:100210008091020190910301A0910401B091050128
:100220008093220190932301A0932401B093250190
:10023000BF91AF919F918F910F900FBE0F901F9024
:10024000189580912A01813041F018F0823069F0D0
:1002500010C081E080932A0115C0809129018B3361
:1002600088F082E080932A0113C081E080932A0104
:1002700009C0813039F018F0823089F409C0109239
:1002800029010895809129018F5F809329010895A4
:1002900080912B018F5F80932B011092290108958B
:1002A00080912701813051F028F0823019F183309C
:1002B00029F128C081E0809327014BC0199B08C019
:1002C00082E08093270180912B018B33B9F52EC0FA
:1002D0001A9B08C083E08093270180912C0187310D
:1002E000A1F530C0199B35C01A9B33C0199B31C092
:1002F00083B12FC081E0809327012BC081E08093E0
:10030000270127C01092270110922B0110922C0177
:100310000895809129018B3301F580912C018F5F25
:1003200080932C018CE380932B01089510922B0174
:1003300080912C018F5F80932C0108958F5F8093B3
:100340002B01089510922C0108958F5F80932C014A
:10035000089580912B018B33E1F20895809128015B
:10036000813009F026C280912B018B3308F4D3C071
:1003700080912C018A3038F4E0910001F091010164
:1003800080E3808361C096EF980F9A3038F4E09153
:100390000001F091010181E3808356C09CEE980F2B
:1003A0009A3038F4E0910001F091010182E38083FA
:1003B0004BC092EE980F9A3038F4E0910001F09122
:1003C000010183E3808340C098ED980F9A3038F4A0
:1003D000E0910001F091010184E3808335C09EEC3F
:1003E000980F9A3038F4E0910001F091010185E313
:1003F00080832AC094EC980F9A3038F4E091000181
:10040000F091010186E380831FC09AEB980F9A3028
:1004100038F4E0910001F091010187E3808314C07A
:1004200090EB980F9A3038F4E0910001F0910101BF
:1004300088E3808309C08A558A3030F4E091000156
:10044000F091010189E3808390912C018DEC989FBC
:10045000812D1124869586958695880F282F220F49
:10046000220F820F981B39F4E0910001F0910101F5
:1004700080E3818350C0913039F4E0910001F09124
:10048000010181E3818347C0923039F4E09100019A
:10049000F091010182E381833EC0933039F4E09111
:1004A0000001F091010183E3818335C0943039F478
:1004B000E0910001F091010184E381832CC095302B
:1004C00039F4E0910001F091010185E3818323C0BB
:1004D000963039F4E0910001F091010186E38183C7
:1004E0001AC0973039F4E0910001F091010187E3DF
:1004F000818311C0983039F4E0910001F09101013D
:1005000088E3818308C0993031F4E0910001F091D3
:10051000010189E38183809129018B3308F4D2C0E2
:1005200090912B019A3038F4E0910001F091010193
:1005300080E3838362C086EF890F8A3038F4E091CC
:100540000001F091010181E3838357C08CEE890F94
:100550008A3038F4E0910001F091010182E3838355
:100560004CC082EE890F8A3038F4E0910001F0919E
:10057000010183E3838341C088ED890F8A3038F419
:10058000E0910001F091010184E3838336C08EEC99
:10059000890F8A3038F4E0910001F091010185E380
:1005A00083832BC084EC890F8A3038F4E0910001FA
:1005B000F091010186E3838320C08AEB890F8A30A2
:1005C00038F4E0910001F091010187E3838315C0C5
:1005D00080EB890F8A3038F4E0910001F09101013D
:1005E00088E383830AC086EA890F8A3030F4E09179
:1005F0000001F091010189E383838DEC989F812DA7
:100600001124869586958695880F282F220F220F14
:10061000820F981B39F4E0910001F091010180E311
:10062000848350C0913039F4E0910001F0910101D0
:1006300081E3848347C0923039F4E0910001F09166
:10064000010182E384833EC0933039F4E0910001DC
:10065000F091010183E3848335C0943039F4E09153
:100660000001F091010184E384832CC0953039F4BA
:10067000E0910001F091010185E3848323C096306D
:1006800039F4E0910001F091010186E384831AC0FE
:10069000973039F4E0910001F091010187E3848300
:1006A00011C0983039F4E0910001F091010188E324
:1006B000848308C0993031F4E0910001F091010188
:1006C00089E3848380912B018B3308F46CC0809183
:1006D0002C018630C9F4E0910001F09101018DE612
:1006E000858B8FE6868B82E7878B8EE6808F99E6F7
:1006F000918F828F87E6838F81E2848F80E2858F5E
:10070000868F878F80A34FC08C30D1F4E091000199
:10071000F091010181E6858B86E6868B84E7878BE5
:1007200085E6808F82E7818F8EE6828F9FE6938FAA
:10073000948F858F81E2868F80E2878F80A333C07C
:100740008231C1F4E0910001F091010185E6858BD1
:1007500096E7968B878B8EE6808F99E6918F828FB6
:1007600087E6838F81E2848F80E2858F868F878FF3
:1007700080A319C08631B9F4E0910001F091010124
:100780008EE6858B89E6868B87E6878B88E6808F69
:1007900084E7818F81E2828F80E2838F848F858FCF
:1007A000868F878F80A3609100017091010181E0A5
:1007B000CEDC80912801811103C081E08093280163
:1007C000089588EE93E0A0E0B0E08093020190935A
:1007D0000301A0930401B09305018093220190933B
:1007E0002301A0932401B0932501CBDC14B88FEF33
:1007F00085B987B918B88AB91BB810922A01109226
:1008000027011092280183DC1CDD4ADDA7DD8091E1
:1008100026018823E1F310922601F6CFF894FFCF4A
:1008200006010100000020203A2020202020202066
:10083000202020202020476F6F64204E6967687455
:02084000210095
:00000001FF
