S00E00004C69676874732E73726563AB
S113000057C0000065C0000063C0000061C000006C
S11300105FC000005DC000005BC0000059C000006C
S113002057C0000055C0000053C0000051C000007C
S11300304FC000004DC000004BC0000049C000008C
S113004047C0000045C0000043C0000041C000009C
S11300503FC000003DC000003BC0000039C00000AC
S113006037C0000035C0000033C0000031C00000BC
S11300702FC000002DC000002BC0000029C00000CC
S113008027C0000025C0000023C00000D900DD0007
S1130090E100E500E900ED00F100F500F9000601DA
S11300A009010C010F011201150118011B011E01A8
S11300B011241FBECFEFD0E4DEBFCDBF21E0A0E00E
S11300C0B1E001C01D92AA30B207E1F7BAD0E1C095
S11300D097CFEAE7F0E08081806E808308958830CE
S11300E060F0ECE7F0E08081808309C0000081507B
S11300F0E9F78FE080930001089580937C008FE0FE
S1130100F5CF80910901813061F018F0823081F0DF
S11301100CC081E080930901109203011092040144
S113012036C082E08093090103C0109209012FC0F8
S1130130809178009091790090930201809301015D
S11301404091050150910601840F951FAC0156950D
S1130150479550930601409305014115510519F443
S11301601092080110C09A012E5C3F4FA1EAB0EA38
S113017081D096958795929582958F7089279F70E7
S113018089278093080140930401509303018091CF
S1130190040185B9809103018BB908952091070169
S11301A0822F90E08930910540F5FC01EA5BFF4F16
S11301B05BC081E0809307012CC082E0809307013B
S11301C02BC083E0809307012AC084E08093070159
S11301D029C085E08093070128C086E08093070149
S11301E027C087E08093070126C088E08093070139
S11301F025C081E0809307010CC0822F90E08930F4
S11302009105F0F4FC01E15BFF4F2EC080E067CF65
S1130210089580E064CF089581E061CF089582E07D
S11302205ECF089583E05BCF089584E058CF0895AE
S113023085E055CF089586E052CF089587E04FCFEB
S113024008958FEF84B915B88AB91BB811B882B96B
S113025010920901109207011092030110920401F7
S113026038DF4FDF9BDFFDCFEE0FFF1F0590F491CA
S1130270E02D0994A29FB001B39FC001A39F700D0C
S1130280811D1124911DB29F700D811D1124911D9A
S10902900895F894FFCF6D
S9030000FC
